{
    "contractName": "TokenMaster",
    "abi": [
        {
            "inputs": [
                {
                    "internalType": "string",
                    "name": "_name",
                    "type": "string"
                },
                {
                    "internalType": "string",
                    "name": "_symbol",
                    "type": "string"
                }
            ],
            "stateMutability": "nonpayable",
            "type": "constructor"
        },
        {
            "anonymous": false,
            "inputs": [
                {
                    "indexed": true,
                    "internalType": "address",
                    "name": "owner",
                    "type": "address"
                },
                {
                    "indexed": true,
                    "internalType": "address",
                    "name": "approved",
                    "type": "address"
                },
                {
                    "indexed": true,
                    "internalType": "uint256",
                    "name": "tokenId",
                    "type": "uint256"
                }
            ],
            "name": "Approval",
            "type": "event"
        },
        {
            "anonymous": false,
            "inputs": [
                {
                    "indexed": true,
                    "internalType": "address",
                    "name": "owner",
                    "type": "address"
                },
                {
                    "indexed": true,
                    "internalType": "address",
                    "name": "operator",
                    "type": "address"
                },
                {
                    "indexed": false,
                    "internalType": "bool",
                    "name": "approved",
                    "type": "bool"
                }
            ],
            "name": "ApprovalForAll",
            "type": "event"
        },
        {
            "anonymous": false,
            "inputs": [
                {
                    "indexed": true,
                    "internalType": "address",
                    "name": "from",
                    "type": "address"
                },
                {
                    "indexed": true,
                    "internalType": "address",
                    "name": "to",
                    "type": "address"
                },
                {
                    "indexed": true,
                    "internalType": "uint256",
                    "name": "tokenId",
                    "type": "uint256"
                }
            ],
            "name": "Transfer",
            "type": "event"
        },
        {
            "inputs": [
                {
                    "internalType": "address",
                    "name": "to",
                    "type": "address"
                },
                {
                    "internalType": "uint256",
                    "name": "tokenId",
                    "type": "uint256"
                }
            ],
            "name": "approve",
            "outputs": [],
            "stateMutability": "nonpayable",
            "type": "function"
        },
        {
            "inputs": [
                {
                    "internalType": "address",
                    "name": "owner",
                    "type": "address"
                }
            ],
            "name": "balanceOf",
            "outputs": [
                {
                    "internalType": "uint256",
                    "name": "",
                    "type": "uint256"
                }
            ],
            "stateMutability": "view",
            "type": "function"
        },
        {
            "inputs": [
                {
                    "internalType": "uint256",
                    "name": "tokenId",
                    "type": "uint256"
                }
            ],
            "name": "getApproved",
            "outputs": [
                {
                    "internalType": "address",
                    "name": "",
                    "type": "address"
                }
            ],
            "stateMutability": "view",
            "type": "function"
        },
        {
            "inputs": [
                {
                    "internalType": "address",
                    "name": "owner",
                    "type": "address"
                },
                {
                    "internalType": "address",
                    "name": "operator",
                    "type": "address"
                }
            ],
            "name": "isApprovedForAll",
            "outputs": [
                {
                    "internalType": "bool",
                    "name": "",
                    "type": "bool"
                }
            ],
            "stateMutability": "view",
            "type": "function"
        },
        {
            "inputs": [
                {
                    "internalType": "string",
                    "name": "_name",
                    "type": "string"
                },
                {
                    "internalType": "uint256",
                    "name": "_cost",
                    "type": "uint256"
                },
                {
                    "internalType": "uint256",
                    "name": "_maxTickets",
                    "type": "uint256"
                },
                {
                    "internalType": "string",
                    "name": "_date",
                    "type": "string"
                },
                {
                    "internalType": "string",
                    "name": "_time",
                    "type": "string"
                },
                {
                    "internalType": "string",
                    "name": "_location",
                    "type": "string"
                }
            ],
            "name": "list",
            "outputs": [],
            "stateMutability": "nonpayable",
            "type": "function"
        },
        {
            "inputs": [],
            "name": "name",
            "outputs": [
                {
                    "internalType": "string",
                    "name": "",
                    "type": "string"
                }
            ],
            "stateMutability": "view",
            "type": "function"
        },
        {
            "inputs": [],
            "name": "owner",
            "outputs": [
                {
                    "internalType": "address",
                    "name": "",
                    "type": "address"
                }
            ],
            "stateMutability": "view",
            "type": "function"
        },
        {
            "inputs": [
                {
                    "internalType": "uint256",
                    "name": "tokenId",
                    "type": "uint256"
                }
            ],
            "name": "ownerOf",
            "outputs": [
                {
                    "internalType": "address",
                    "name": "",
                    "type": "address"
                }
            ],
            "stateMutability": "view",
            "type": "function"
        },
        {
            "inputs": [
                {
                    "internalType": "address",
                    "name": "from",
                    "type": "address"
                },
                {
                    "internalType": "address",
                    "name": "to",
                    "type": "address"
                },
                {
                    "internalType": "uint256",
                    "name": "tokenId",
                    "type": "uint256"
                }
            ],
            "name": "safeTransferFrom",
            "outputs": [],
            "stateMutability": "nonpayable",
            "type": "function"
        },
        {
            "inputs": [
                {
                    "internalType": "address",
                    "name": "from",
                    "type": "address"
                },
                {
                    "internalType": "address",
                    "name": "to",
                    "type": "address"
                },
                {
                    "internalType": "uint256",
                    "name": "tokenId",
                    "type": "uint256"
                },
                {
                    "internalType": "bytes",
                    "name": "data",
                    "type": "bytes"
                }
            ],
            "name": "safeTransferFrom",
            "outputs": [],
            "stateMutability": "nonpayable",
            "type": "function"
        },
        {
            "inputs": [
                {
                    "internalType": "address",
                    "name": "operator",
                    "type": "address"
                },
                {
                    "internalType": "bool",
                    "name": "approved",
                    "type": "bool"
                }
            ],
            "name": "setApprovalForAll",
            "outputs": [],
            "stateMutability": "nonpayable",
            "type": "function"
        },
        {
            "inputs": [
                {
                    "internalType": "bytes4",
                    "name": "interfaceId",
                    "type": "bytes4"
                }
            ],
            "name": "supportsInterface",
            "outputs": [
                {
                    "internalType": "bool",
                    "name": "",
                    "type": "bool"
                }
            ],
            "stateMutability": "view",
            "type": "function"
        },
        {
            "inputs": [],
            "name": "symbol",
            "outputs": [
                {
                    "internalType": "string",
                    "name": "",
                    "type": "string"
                }
            ],
            "stateMutability": "view",
            "type": "function"
        },
        {
            "inputs": [
                {
                    "internalType": "uint256",
                    "name": "tokenId",
                    "type": "uint256"
                }
            ],
            "name": "tokenURI",
            "outputs": [
                {
                    "internalType": "string",
                    "name": "",
                    "type": "string"
                }
            ],
            "stateMutability": "view",
            "type": "function"
        },
        {
            "inputs": [
                {
                    "internalType": "address",
                    "name": "from",
                    "type": "address"
                },
                {
                    "internalType": "address",
                    "name": "to",
                    "type": "address"
                },
                {
                    "internalType": "uint256",
                    "name": "tokenId",
                    "type": "uint256"
                }
            ],
            "name": "transferFrom",
            "outputs": [],
            "stateMutability": "nonpayable",
            "type": "function"
        }
    ],
    "bytecode": "60806040523480156200001157600080fd5b506040516200157838038062001578833981016040819052620000349162000136565b818160006200004483826200022f565b5060016200005382826200022f565b5050600680546001600160a01b0319163317905550620002fb915050565b634e487b7160e01b600052604160045260246000fd5b600082601f8301126200009957600080fd5b81516001600160401b0380821115620000b657620000b662000071565b604051601f8301601f19908116603f01168101908282118183101715620000e157620000e162000071565b81604052838152602092508683858801011115620000fe57600080fd5b600091505b8382101562000122578582018301518183018401529082019062000103565b600093810190920192909252949350505050565b600080604083850312156200014a57600080fd5b82516001600160401b03808211156200016257600080fd5b620001708683870162000087565b935060208501519150808211156200018757600080fd5b50620001968582860162000087565b9150509250929050565b600181811c90821680620001b557607f821691505b602082108103620001d657634e487b7160e01b600052602260045260246000fd5b50919050565b601f8211156200022a57600081815260208120601f850160051c81016020861015620002055750805b601f850160051c820191505b81811015620002265782815560010162000211565b5050505b505050565b81516001600160401b038111156200024b576200024b62000071565b62000263816200025c8454620001a0565b84620001dc565b602080601f8311600181146200029b5760008415620002825750858301515b600019600386901b1c1916600185901b17855562000226565b600085815260208120601f198616915b82811015620002cc57888601518255948401946001909101908401620002ab565b5085821015620002eb5787850151600019600388901b60f8161c191681555b5050505050600190811b01905550565b61126d806200030b6000396000f3fe608060405234801561001057600080fd5b50600436106100f55760003560e01c806370a0823111610097578063a22cb46511610066578063a22cb46514610238578063b88d4fde1461024b578063c87b56dd1461025e578063e985e9c51461027157600080fd5b806370a08231146101b05780638da5cb5b146101d157806395d89b41146101e45780639a382f0f146101ec57600080fd5b8063095ea7b3116100d3578063095ea7b31461016257806323b872dd1461017757806342842e0e1461018a5780636352211e1461019d57600080fd5b806301ffc9a7146100fa57806306fdde0314610122578063081812fc14610137575b600080fd5b61010d610108366004610d04565b6102ad565b60405190151581526020015b60405180910390f35b61012a6102ff565b6040516101199190610d71565b61014a610145366004610d84565b610391565b6040516001600160a01b039091168152602001610119565b610175610170366004610db9565b6103b8565b005b610175610185366004610de3565b6104d2565b610175610198366004610de3565b610503565b61014a6101ab366004610d84565b61051e565b6101c36101be366004610e1f565b61057e565b604051908152602001610119565b60065461014a906001600160a01b031681565b61012a610604565b6101756101fa366004610ee6565b604080516101008101825260018152602081019790975286019490945260608501839052608085019290925260a084015260c083015260e090910152565b610175610246366004610fa5565b610613565b610175610259366004610fe1565b610622565b61012a61026c366004610d84565b61065a565b61010d61027f36600461105d565b6001600160a01b03918216600090815260056020908152604080832093909416825291909152205460ff1690565b60006001600160e01b031982166380ac58cd60e01b14806102de57506001600160e01b03198216635b5e139f60e01b145b806102f957506301ffc9a760e01b6001600160e01b03198316145b92915050565b60606000805461030e90611090565b80601f016020809104026020016040519081016040528092919081815260200182805461033a90611090565b80156103875780601f1061035c57610100808354040283529160200191610387565b820191906000526020600020905b81548152906001019060200180831161036a57829003601f168201915b5050505050905090565b600061039c826106ce565b506000908152600460205260409020546001600160a01b031690565b60006103c38261051e565b9050806001600160a01b0316836001600160a01b0316036104355760405162461bcd60e51b815260206004820152602160248201527f4552433732313a20617070726f76616c20746f2063757272656e74206f776e656044820152603960f91b60648201526084015b60405180910390fd5b336001600160a01b03821614806104515750610451813361027f565b6104c35760405162461bcd60e51b815260206004820152603d60248201527f4552433732313a20617070726f76652063616c6c6572206973206e6f7420746f60448201527f6b656e206f776e6572206f7220617070726f76656420666f7220616c6c000000606482015260840161042c565b6104cd8383610730565b505050565b6104dc338261079e565b6104f85760405162461bcd60e51b815260040161042c906110ca565b6104cd83838361081d565b6104cd83838360405180602001604052806000815250610622565b6000818152600260205260408120546001600160a01b0316806102f95760405162461bcd60e51b8152602060048201526018602482015277115490cdcc8c4e881a5b9d985b1a59081d1bdad95b88125160421b604482015260640161042c565b60006001600160a01b0382166105e85760405162461bcd60e51b815260206004820152602960248201527f4552433732313a2061646472657373207a65726f206973206e6f7420612076616044820152683634b21037bbb732b960b91b606482015260840161042c565b506001600160a01b031660009081526003602052604090205490565b60606001805461030e90611090565b61061e338383610981565b5050565b61062c338361079e565b6106485760405162461bcd60e51b815260040161042c906110ca565b61065484848484610a4f565b50505050565b6060610665826106ce565b600061067c60408051602081019091526000815290565b9050600081511161069c57604051806020016040528060008152506106c7565b806106a684610a82565b6040516020016106b7929190611117565b6040516020818303038152906040525b9392505050565b6000818152600260205260409020546001600160a01b031661072d5760405162461bcd60e51b8152602060048201526018602482015277115490cdcc8c4e881a5b9d985b1a59081d1bdad95b88125160421b604482015260640161042c565b50565b600081815260046020526040902080546001600160a01b0319166001600160a01b03841690811790915581906107658261051e565b6001600160a01b03167f8c5be1e5ebec7d5bd14f71427d1e84f3dd0314c0f7b2291e5b200ac8c7c3b92560405160405180910390a45050565b6000806107aa8361051e565b9050806001600160a01b0316846001600160a01b031614806107f157506001600160a01b0380821660009081526005602090815260408083209388168352929052205460ff165b806108155750836001600160a01b031661080a84610391565b6001600160a01b0316145b949350505050565b826001600160a01b03166108308261051e565b6001600160a01b0316146108565760405162461bcd60e51b815260040161042c90611146565b6001600160a01b0382166108b85760405162461bcd60e51b8152602060048201526024808201527f4552433732313a207472616e7366657220746f20746865207a65726f206164646044820152637265737360e01b606482015260840161042c565b826001600160a01b03166108cb8261051e565b6001600160a01b0316146108f15760405162461bcd60e51b815260040161042c90611146565b600081815260046020908152604080832080546001600160a01b03199081169091556001600160a01b0387811680865260038552838620805460001901905590871680865283862080546001019055868652600290945282852080549092168417909155905184937fddf252ad1be2c89b69c2b068fc378daa952ba7f163c4a11628f55a4df523b3ef91a4505050565b816001600160a01b0316836001600160a01b0316036109e25760405162461bcd60e51b815260206004820152601960248201527f4552433732313a20617070726f766520746f2063616c6c657200000000000000604482015260640161042c565b6001600160a01b03838116600081815260056020908152604080832094871680845294825291829020805460ff191686151590811790915591519182527f17307eab39ab6107e8899845ad3d59bd9653f200f220920489ca2b5937696c31910160405180910390a3505050565b610a5a84848461081d565b610a6684848484610b15565b6106545760405162461bcd60e51b815260040161042c9061118b565b60606000610a8f83610c16565b600101905060008167ffffffffffffffff811115610aaf57610aaf610e3a565b6040519080825280601f01601f191660200182016040528015610ad9576020820181803683370190505b5090508181016020015b600019016f181899199a1a9b1b9c1cb0b131b232b360811b600a86061a8153600a8504945084610ae357509392505050565b60006001600160a01b0384163b15610c0b57604051630a85bd0160e11b81526001600160a01b0385169063150b7a0290610b599033908990889088906004016111dd565b6020604051808303816000875af1925050508015610b94575060408051601f3d908101601f19168201909252610b919181019061121a565b60015b610bf1573d808015610bc2576040519150601f19603f3d011682016040523d82523d6000602084013e610bc7565b606091505b508051600003610be95760405162461bcd60e51b815260040161042c9061118b565b805181602001fd5b6001600160e01b031916630a85bd0160e11b149050610815565b506001949350505050565b60008072184f03e93ff9f4daa797ed6e38ed64bf6a1f0160401b8310610c555772184f03e93ff9f4daa797ed6e38ed64bf6a1f0160401b830492506040015b6d04ee2d6d415b85acef81000000008310610c81576d04ee2d6d415b85acef8100000000830492506020015b662386f26fc100008310610c9f57662386f26fc10000830492506010015b6305f5e1008310610cb7576305f5e100830492506008015b6127108310610ccb57612710830492506004015b60648310610cdd576064830492506002015b600a83106102f95760010192915050565b6001600160e01b03198116811461072d57600080fd5b600060208284031215610d1657600080fd5b81356106c781610cee565b60005b83811015610d3c578181015183820152602001610d24565b50506000910152565b60008151808452610d5d816020860160208601610d21565b601f01601f19169290920160200192915050565b6020815260006106c76020830184610d45565b600060208284031215610d9657600080fd5b5035919050565b80356001600160a01b0381168114610db457600080fd5b919050565b60008060408385031215610dcc57600080fd5b610dd583610d9d565b946020939093013593505050565b600080600060608486031215610df857600080fd5b610e0184610d9d565b9250610e0f60208501610d9d565b9150604084013590509250925092565b600060208284031215610e3157600080fd5b6106c782610d9d565b634e487b7160e01b600052604160045260246000fd5b600067ffffffffffffffff80841115610e6b57610e6b610e3a565b604051601f8501601f19908116603f01168101908282118183101715610e9357610e93610e3a565b81604052809350858152868686011115610eac57600080fd5b858560208301376000602087830101525050509392505050565b600082601f830112610ed757600080fd5b6106c783833560208501610e50565b60008060008060008060c08789031215610eff57600080fd5b863567ffffffffffffffff80821115610f1757600080fd5b610f238a838b01610ec6565b975060208901359650604089013595506060890135915080821115610f4757600080fd5b610f538a838b01610ec6565b94506080890135915080821115610f6957600080fd5b610f758a838b01610ec6565b935060a0890135915080821115610f8b57600080fd5b50610f9889828a01610ec6565b9150509295509295509295565b60008060408385031215610fb857600080fd5b610fc183610d9d565b915060208301358015158114610fd657600080fd5b809150509250929050565b60008060008060808587031215610ff757600080fd5b61100085610d9d565b935061100e60208601610d9d565b925060408501359150606085013567ffffffffffffffff81111561103157600080fd5b8501601f8101871361104257600080fd5b61105187823560208401610e50565b91505092959194509250565b6000806040838503121561107057600080fd5b61107983610d9d565b915061108760208401610d9d565b90509250929050565b600181811c908216806110a457607f821691505b6020821081036110c457634e487b7160e01b600052602260045260246000fd5b50919050565b6020808252602d908201527f4552433732313a2063616c6c6572206973206e6f7420746f6b656e206f776e6560408201526c1c881bdc88185c1c1c9bdd9959609a1b606082015260800190565b60008351611129818460208801610d21565b83519083019061113d818360208801610d21565b01949350505050565b60208082526025908201527f4552433732313a207472616e736665722066726f6d20696e636f72726563742060408201526437bbb732b960d91b606082015260800190565b60208082526032908201527f4552433732313a207472616e7366657220746f206e6f6e20455243373231526560408201527131b2b4bb32b91034b6b83632b6b2b73a32b960711b606082015260800190565b6001600160a01b038581168252841660208201526040810183905260806060820181905260009061121090830184610d45565b9695505050505050565b60006020828403121561122c57600080fd5b81516106c781610cee56fea26469706673582212202cfb63de962c84ddd6444e0448bd878293fccb082dc704458692e247f92da9af64736f6c63430008130033",
    "sourcePath": "/home/cmax/Desktop/Blockchain/Projects/tokenmaster/contracts/TokenMaster.sol",
    "compiler": {
        "name": "solc",
        "version": "0.8.19+commit.7dd6d404"
    },
    "functionHashes": {
        "approve(address,uint256)": "095ea7b3",
        "balanceOf(address)": "70a08231",
        "getApproved(uint256)": "081812fc",
        "isApprovedForAll(address,address)": "e985e9c5",
        "list(string,uint256,uint256,string,string,string)": "9a382f0f",
        "name()": "06fdde03",
        "owner()": "8da5cb5b",
        "ownerOf(uint256)": "6352211e",
        "safeTransferFrom(address,address,uint256)": "42842e0e",
        "safeTransferFrom(address,address,uint256,bytes)": "b88d4fde",
        "setApprovalForAll(address,bool)": "a22cb465",
        "supportsInterface(bytes4)": "01ffc9a7",
        "symbol()": "95d89b41",
        "tokenURI(uint256)": "c87b56dd",
        "transferFrom(address,address,uint256)": "23b872dd"
    },
    "gasEstimates": {
        "creation": {
            "codeDepositCost": "943400",
            "executionCost": "infinite",
            "totalCost": "infinite"
        },
        "external": {
            "approve(address,uint256)": "infinite",
            "balanceOf(address)": "2612",
            "getApproved(uint256)": "4792",
            "isApprovedForAll(address,address)": "infinite",
            "list(string,uint256,uint256,string,string,string)": "infinite",
            "name()": "infinite",
            "owner()": "2382",
            "ownerOf(uint256)": "2627",
            "safeTransferFrom(address,address,uint256)": "infinite",
            "safeTransferFrom(address,address,uint256,bytes)": "infinite",
            "setApprovalForAll(address,bool)": "26705",
            "supportsInterface(bytes4)": "534",
            "symbol()": "infinite",
            "tokenURI(uint256)": "infinite",
            "transferFrom(address,address,uint256)": "infinite"
        }
    }
}